{
  "contractName": "C2",
  "abi": [
    {
      "inputs": [],
      "stateMutability": "nonpayable",
      "type": "constructor"
    },
    {
      "anonymous": false,
      "inputs": [
        {
          "indexed": true,
          "internalType": "address",
          "name": "owner",
          "type": "address"
        },
        {
          "indexed": true,
          "internalType": "address",
          "name": "spender",
          "type": "address"
        },
        {
          "indexed": false,
          "internalType": "uint256",
          "name": "value",
          "type": "uint256"
        }
      ],
      "name": "Approval",
      "type": "event"
    },
    {
      "anonymous": false,
      "inputs": [
        {
          "indexed": true,
          "internalType": "address",
          "name": "account",
          "type": "address"
        },
        {
          "indexed": false,
          "internalType": "uint256",
          "name": "c2Burned",
          "type": "uint256"
        },
        {
          "indexed": false,
          "internalType": "uint256",
          "name": "backingReturned",
          "type": "uint256"
        }
      ],
      "name": "Burned",
      "type": "event"
    },
    {
      "anonymous": false,
      "inputs": [
        {
          "indexed": true,
          "internalType": "address",
          "name": "account",
          "type": "address"
        },
        {
          "indexed": false,
          "internalType": "uint256",
          "name": "c2Exchanged",
          "type": "uint256"
        },
        {
          "indexed": false,
          "internalType": "uint256",
          "name": "backingReceived",
          "type": "uint256"
        }
      ],
      "name": "CashedOut",
      "type": "event"
    },
    {
      "anonymous": false,
      "inputs": [
        {
          "indexed": true,
          "internalType": "address",
          "name": "account",
          "type": "address"
        },
        {
          "indexed": false,
          "internalType": "uint256",
          "name": "c2Issued",
          "type": "uint256"
        },
        {
          "indexed": false,
          "internalType": "uint256",
          "name": "backingAmount",
          "type": "uint256"
        }
      ],
      "name": "Issued",
      "type": "event"
    },
    {
      "anonymous": false,
      "inputs": [
        {
          "indexed": true,
          "internalType": "address",
          "name": "previousOwner",
          "type": "address"
        },
        {
          "indexed": true,
          "internalType": "address",
          "name": "newOwner",
          "type": "address"
        }
      ],
      "name": "OwnershipTransferred",
      "type": "event"
    },
    {
      "anonymous": false,
      "inputs": [
        {
          "indexed": true,
          "internalType": "address",
          "name": "from",
          "type": "address"
        },
        {
          "indexed": true,
          "internalType": "address",
          "name": "to",
          "type": "address"
        },
        {
          "indexed": false,
          "internalType": "uint256",
          "name": "value",
          "type": "uint256"
        }
      ],
      "name": "Transfer",
      "type": "event"
    },
    {
      "inputs": [],
      "name": "agreementHash",
      "outputs": [
        {
          "internalType": "bytes32",
          "name": "",
          "type": "bytes32"
        }
      ],
      "stateMutability": "view",
      "type": "function"
    },
    {
      "inputs": [
        {
          "internalType": "address",
          "name": "owner",
          "type": "address"
        },
        {
          "internalType": "address",
          "name": "spender",
          "type": "address"
        }
      ],
      "name": "allowance",
      "outputs": [
        {
          "internalType": "uint256",
          "name": "",
          "type": "uint256"
        }
      ],
      "stateMutability": "view",
      "type": "function"
    },
    {
      "inputs": [
        {
          "internalType": "address",
          "name": "spender",
          "type": "address"
        },
        {
          "internalType": "uint256",
          "name": "amount",
          "type": "uint256"
        }
      ],
      "name": "approve",
      "outputs": [
        {
          "internalType": "bool",
          "name": "",
          "type": "bool"
        }
      ],
      "stateMutability": "nonpayable",
      "type": "function"
    },
    {
      "inputs": [],
      "name": "backingToken",
      "outputs": [
        {
          "internalType": "contract ERC20",
          "name": "",
          "type": "address"
        }
      ],
      "stateMutability": "view",
      "type": "function"
    },
    {
      "inputs": [
        {
          "internalType": "address",
          "name": "account",
          "type": "address"
        }
      ],
      "name": "balanceOf",
      "outputs": [
        {
          "internalType": "uint256",
          "name": "",
          "type": "uint256"
        }
      ],
      "stateMutability": "view",
      "type": "function"
    },
    {
      "inputs": [],
      "name": "decimals",
      "outputs": [
        {
          "internalType": "uint8",
          "name": "",
          "type": "uint8"
        }
      ],
      "stateMutability": "view",
      "type": "function"
    },
    {
      "inputs": [
        {
          "internalType": "address",
          "name": "spender",
          "type": "address"
        },
        {
          "internalType": "uint256",
          "name": "subtractedValue",
          "type": "uint256"
        }
      ],
      "name": "decreaseAllowance",
      "outputs": [
        {
          "internalType": "bool",
          "name": "",
          "type": "bool"
        }
      ],
      "stateMutability": "nonpayable",
      "type": "function"
    },
    {
      "inputs": [
        {
          "internalType": "address",
          "name": "spender",
          "type": "address"
        },
        {
          "internalType": "uint256",
          "name": "addedValue",
          "type": "uint256"
        }
      ],
      "name": "increaseAllowance",
      "outputs": [
        {
          "internalType": "bool",
          "name": "",
          "type": "bool"
        }
      ],
      "stateMutability": "nonpayable",
      "type": "function"
    },
    {
      "inputs": [],
      "name": "isEstablished",
      "outputs": [
        {
          "internalType": "bool",
          "name": "",
          "type": "bool"
        }
      ],
      "stateMutability": "view",
      "type": "function"
    },
    {
      "inputs": [],
      "name": "name",
      "outputs": [
        {
          "internalType": "string",
          "name": "",
          "type": "string"
        }
      ],
      "stateMutability": "view",
      "type": "function"
    },
    {
      "inputs": [],
      "name": "owner",
      "outputs": [
        {
          "internalType": "address",
          "name": "",
          "type": "address"
        }
      ],
      "stateMutability": "view",
      "type": "function"
    },
    {
      "inputs": [],
      "name": "renounceOwnership",
      "outputs": [],
      "stateMutability": "nonpayable",
      "type": "function"
    },
    {
      "inputs": [],
      "name": "symbol",
      "outputs": [
        {
          "internalType": "string",
          "name": "",
          "type": "string"
        }
      ],
      "stateMutability": "view",
      "type": "function"
    },
    {
      "inputs": [],
      "name": "totalSupply",
      "outputs": [
        {
          "internalType": "uint256",
          "name": "",
          "type": "uint256"
        }
      ],
      "stateMutability": "view",
      "type": "function"
    },
    {
      "inputs": [
        {
          "internalType": "address",
          "name": "recipient",
          "type": "address"
        },
        {
          "internalType": "uint256",
          "name": "amount",
          "type": "uint256"
        }
      ],
      "name": "transfer",
      "outputs": [
        {
          "internalType": "bool",
          "name": "",
          "type": "bool"
        }
      ],
      "stateMutability": "nonpayable",
      "type": "function"
    },
    {
      "inputs": [
        {
          "internalType": "address",
          "name": "sender",
          "type": "address"
        },
        {
          "internalType": "address",
          "name": "recipient",
          "type": "address"
        },
        {
          "internalType": "uint256",
          "name": "amount",
          "type": "uint256"
        }
      ],
      "name": "transferFrom",
      "outputs": [
        {
          "internalType": "bool",
          "name": "",
          "type": "bool"
        }
      ],
      "stateMutability": "nonpayable",
      "type": "function"
    },
    {
      "inputs": [
        {
          "internalType": "address",
          "name": "newOwner",
          "type": "address"
        }
      ],
      "name": "transferOwnership",
      "outputs": [],
      "stateMutability": "nonpayable",
      "type": "function"
    },
    {
      "inputs": [],
      "name": "version",
      "outputs": [
        {
          "internalType": "string",
          "name": "",
          "type": "string"
        }
      ],
      "stateMutability": "view",
      "type": "function"
    },
    {
      "inputs": [
        {
          "internalType": "contract ERC20",
          "name": "backingTokenAddress",
          "type": "address"
        },
        {
          "internalType": "bytes32",
          "name": "agreement",
          "type": "bytes32"
        }
      ],
      "name": "establish",
      "outputs": [],
      "stateMutability": "nonpayable",
      "type": "function"
    },
    {
      "inputs": [
        {
          "internalType": "address",
          "name": "account",
          "type": "address"
        },
        {
          "internalType": "uint256",
          "name": "amount",
          "type": "uint256"
        }
      ],
      "name": "issue",
      "outputs": [],
      "stateMutability": "nonpayable",
      "type": "function"
    },
    {
      "inputs": [
        {
          "internalType": "uint256",
          "name": "amount",
          "type": "uint256"
        }
      ],
      "name": "burn",
      "outputs": [],
      "stateMutability": "nonpayable",
      "type": "function"
    },
    {
      "inputs": [
        {
          "internalType": "uint256",
          "name": "amount",
          "type": "uint256"
        }
      ],
      "name": "cashout",
      "outputs": [],
      "stateMutability": "nonpayable",
      "type": "function"
    },
    {
      "inputs": [],
      "name": "bacBalance",
      "outputs": [
        {
          "internalType": "uint256",
          "name": "",
          "type": "uint256"
        }
      ],
      "stateMutability": "view",
      "type": "function"
    },
    {
      "inputs": [
        {
          "internalType": "uint256",
          "name": "amountC2",
          "type": "uint256"
        }
      ],
      "name": "backingNeededFor",
      "outputs": [
        {
          "internalType": "uint256",
          "name": "",
          "type": "uint256"
        }
      ],
      "stateMutability": "view",
      "type": "function"
    },
    {
      "inputs": [],
      "name": "totalBackingNeededToFund",
      "outputs": [
        {
          "internalType": "uint256",
          "name": "",
          "type": "uint256"
        }
      ],
      "stateMutability": "view",
      "type": "function"
    },
    {
      "inputs": [],
      "name": "isFunded",
      "outputs": [
        {
          "internalType": "bool",
          "name": "",
          "type": "bool"
        }
      ],
      "stateMutability": "view",
      "type": "function"
    }
  ],
  "bytecode": "0x60806040526006805460ff60a01b191690553480156200001e57600080fd5b5060405180604001604052806012815260200171436f6e7472696275746f724372656469747360701b8152506040518060400160405280600381526020016221af1960e91b81525081600390805190602001906200007e9291906200011a565b508051620000949060049060208401906200011a565b50506005805460ff19166012179055506000620000b96001600160e01b036200011516565b60058054610100600160a81b0319166101006001600160a01b03841690810291909117909155604051919250906000907f8be0079c531659141344cd1fd0a4f28419497f9722a3daafe3b4186f6b6457e0908290a350620001bc565b335b90565b828054600181600116156101000203166002900490600052602060002090601f016020900481019282601f106200015d57805160ff19168380011785556200018d565b828001600101855582156200018d579182015b828111156200018d57825182559160200191906001019062000170565b506200019b9291506200019f565b5090565b6200011791905b808211156200019b5760008155600101620001a6565b611bea80620001cc6000396000f3fe608060405234801561001057600080fd5b50600436106101ae5760003560e01c80637c654303116100ee578063a457c2d711610097578063c668789711610071578063c66878971461045c578063dd62ed3e14610479578063f2fde38b146104a7578063f8a5d7f2146104cd576101ae565b8063a457c2d7146103e7578063a9059cbb14610413578063a9e732bb1461043f576101ae565b806395d89b41116100c857806395d89b41146103cf5780639aec43e0146103d7578063a2f25059146103df576101ae565b80637c65430314610393578063867904b41461039b5780638da5cb5b146103c7576101ae565b8063313ce5671161015b57806347e621b71161013557806347e621b71461033957806354fd4d501461035d57806370a0823114610365578063715018a61461038b576101ae565b8063313ce567146102d057806339509351146102ee57806342966c681461031a576101ae565b806318160ddd1161018c57806318160ddd1461028a578063216db5511461029257806323b872dd1461029a576101ae565b806306fdde03146101b3578063095ea7b3146102305780630ab55d0b14610270575b600080fd5b6101bb6104f9565b6040805160208082528351818301528351919283929083019185019080838360005b838110156101f55781810151838201526020016101dd565b50505050905090810190601f1680156102225780820380516001836020036101000a031916815260200191505b509250505060405180910390f35b61025c6004803603604081101561024657600080fd5b506001600160a01b038135169060200135610590565b604080519115158252519081900360200190f35b6102786105ae565b60408051918252519081900360200190f35b6102786105b4565b6102786105ba565b61025c600480360360608110156102b057600080fd5b506001600160a01b038135811691602081013590911690604001356107c7565b6102d8610854565b6040805160ff9092168252519081900360200190f35b61025c6004803603604081101561030457600080fd5b506001600160a01b03813516906020013561085d565b6103376004803603602081101561033057600080fd5b50356108b1565b005b610341610a8c565b604080516001600160a01b039092168252519081900360200190f35b6101bb610a9b565b6102786004803603602081101561037b57600080fd5b50356001600160a01b0316610ad4565b610337610af3565b61025c610bbf565b610337600480360360408110156103b157600080fd5b506001600160a01b038135169060200135610bd8565b610341610da4565b6101bb610db8565b61025c610e19565b610278610e29565b61025c600480360360408110156103fd57600080fd5b506001600160a01b038135169060200135610ebe565b61025c6004803603604081101561042957600080fd5b506001600160a01b038135169060200135610f2c565b6103376004803603602081101561045557600080fd5b5035610f40565b6102786004803603602081101561047257600080fd5b503561108f565b6102786004803603604081101561048f57600080fd5b506001600160a01b03813581169160200135166110e4565b610337600480360360208110156104bd57600080fd5b50356001600160a01b031661110f565b610337600480360360408110156104e357600080fd5b506001600160a01b038135169060200135611237565b60038054604080516020601f60026000196101006001881615020190951694909404938401819004810282018101909252828152606093909290918301828280156105855780601f1061055a57610100808354040283529160200191610585565b820191906000526020600020905b81548152906001019060200180831161056857829003601f168201915b505050505090505b90565b60006105a461059d61136b565b848461136f565b5060015b92915050565b60075481565b60025490565b60006105c46105b4565b6105d05750600061058d565b600660009054906101000a90046001600160a01b03166001600160a01b031663313ce5676040518163ffffffff1660e01b815260040160206040518083038186803b15801561061e57600080fd5b505afa158015610632573d6000803e3d6000fd5b505050506040513d602081101561064857600080fd5b505160ff16610655610854565b60ff161115610727576107206001610714600660009054906101000a90046001600160a01b03166001600160a01b031663313ce5676040518163ffffffff1660e01b815260040160206040518083038186803b1580156106b457600080fd5b505afa1580156106c8573d6000803e3d6000fd5b505050506040513d60208110156106de57600080fd5b50516106e8610854565b0360ff16600a0a61070860016106fc6105b4565b9063ffffffff61145b16565b9063ffffffff6114a416565b9063ffffffff6114e616565b905061058d565b610720610732610854565b600660009054906101000a90046001600160a01b03166001600160a01b031663313ce5676040518163ffffffff1660e01b815260040160206040518083038186803b15801561078057600080fd5b505afa158015610794573d6000803e3d6000fd5b505050506040513d60208110156107aa57600080fd5b50510360ff16600a0a6107bb6105b4565b9063ffffffff61154016565b60006107d4848484611599565b61084a846107e061136b565b61084585604051806060016040528060288152602001611ada602891396001600160a01b038a1660009081526001602052604081209061081e61136b565b6001600160a01b03168152602081019190915260400160002054919063ffffffff61170016565b61136f565b5060019392505050565b60055460ff1690565b60006105a461086a61136b565b84610845856001600061087b61136b565b6001600160a01b03908116825260208083019390935260409182016000908120918c16815292529020549063ffffffff6114e616565b600654600160a01b900460ff1615156001146108fe5760405162461bcd60e51b8152600401808060200182810382526024815260200180611b6c6024913960400191505060405180910390fd5b60006109098261108f565b905061091c61091661136b565b83611797565b600660009054906101000a90046001600160a01b03166001600160a01b031663a9059cbb306001600160a01b0316638da5cb5b6040518163ffffffff1660e01b815260040160206040518083038186803b15801561097957600080fd5b505afa15801561098d573d6000803e3d6000fd5b505050506040513d60208110156109a357600080fd5b5051604080517fffffffff0000000000000000000000000000000000000000000000000000000060e085901b1681526001600160a01b039092166004830152602482018590525160448083019260209291908290030181600087803b158015610a0b57600080fd5b505af1158015610a1f573d6000803e3d6000fd5b505050506040513d6020811015610a3557600080fd5b50610a40905061136b565b6001600160a01b03167f23ff0e75edf108e3d0392d92e13e8c8a868ef19001bd49f9e94876dc46dff87f8383604051808381526020018281526020019250505060405180910390a25050565b6006546001600160a01b031681565b6040518060400160405280600981526020017f63632076302e312e33000000000000000000000000000000000000000000000081525081565b6001600160a01b0381166000908152602081905260409020545b919050565b610afb61136b565b60055461010090046001600160a01b03908116911614610b62576040805162461bcd60e51b815260206004820181905260248201527f4f776e61626c653a2063616c6c6572206973206e6f7420746865206f776e6572604482015290519081900360640190fd5b60055460405160009161010090046001600160a01b0316907f8be0079c531659141344cd1fd0a4f28419497f9722a3daafe3b4186f6b6457e0908390a36005805474ffffffffffffffffffffffffffffffffffffffff0019169055565b6000610bc96105ba565b610bd1610e29565b1015905090565b610be061136b565b60055461010090046001600160a01b03908116911614610c47576040805162461bcd60e51b815260206004820181905260248201527f4f776e61626c653a2063616c6c6572206973206e6f7420746865206f776e6572604482015290519081900360640190fd5b600654600160a01b900460ff161515600114610c945760405162461bcd60e51b8152600401808060200182810382526024815260200180611b6c6024913960400191505060405180910390fd5b6000610c9f8261108f565b9050610cab838361189f565b6006546001600160a01b03166323b872dd610cc461136b565b604080517fffffffff0000000000000000000000000000000000000000000000000000000060e085901b1681526001600160a01b039092166004830152306024830152604482018590525160648083019260209291908290030181600087803b158015610d3057600080fd5b505af1158015610d44573d6000803e3d6000fd5b505050506040513d6020811015610d5a57600080fd5b5050604080518381526020810183905281516001600160a01b038616927f8269ee3da431ac4749e945c9753440ce6e9c96a9807c29e4228328cfab272259928290030190a2505050565b60055461010090046001600160a01b031690565b60048054604080516020601f60026000196101006001881615020190951694909404938401819004810282018101909252828152606093909290918301828280156105855780601f1061055a57610100808354040283529160200191610585565b600654600160a01b900460ff1681565b600654604080517f70a0823100000000000000000000000000000000000000000000000000000000815230600482015290516000926001600160a01b0316916370a08231916024808301926020929190829003018186803b158015610e8d57600080fd5b505afa158015610ea1573d6000803e3d6000fd5b505050506040513d6020811015610eb757600080fd5b5051905090565b60006105a4610ecb61136b565b8461084585604051806060016040528060258152602001611b906025913960016000610ef561136b565b6001600160a01b03908116825260208083019390935260409182016000908120918d1681529252902054919063ffffffff61170016565b60006105a4610f3961136b565b8484611599565b600654600160a01b900460ff161515600114610f8d5760405162461bcd60e51b8152600401808060200182810382526024815260200180611b6c6024913960400191505060405180910390fd5b6000610f988261108f565b9050610fa561091661136b565b6006546001600160a01b031663a9059cbb610fbe61136b565b836040518363ffffffff1660e01b815260040180836001600160a01b03166001600160a01b0316815260200182815260200192505050602060405180830381600087803b15801561100e57600080fd5b505af1158015611022573d6000803e3d6000fd5b505050506040513d602081101561103857600080fd5b50611043905061136b565b6001600160a01b03167f1c1db2792f0323a7dd4184610c505d7367ceea647bc855ecac1a7c89304d2ff78383604051808381526020018281526020019250505060405180910390a25050565b6000611099610e29565b15806110aa57506110a86105b4565b155b156110b757506000610aee565b6105a860016107146110c76105b4565b61070860016106fc6110d7610e29565b899063ffffffff61154016565b6001600160a01b03918216600090815260016020908152604080832093909416825291909152205490565b61111761136b565b60055461010090046001600160a01b0390811691161461117e576040805162461bcd60e51b815260206004820181905260248201527f4f776e61626c653a2063616c6c6572206973206e6f7420746865206f776e6572604482015290519081900360640190fd5b6001600160a01b0381166111c35760405162461bcd60e51b8152600401808060200182810382526026815260200180611a4b6026913960400191505060405180910390fd5b6005546040516001600160a01b0380841692610100900416907f8be0079c531659141344cd1fd0a4f28419497f9722a3daafe3b4186f6b6457e090600090a3600580546001600160a01b039092166101000274ffffffffffffffffffffffffffffffffffffffff0019909216919091179055565b61123f61136b565b60055461010090046001600160a01b039081169116146112a6576040805162461bcd60e51b815260206004820181905260248201527f4f776e61626c653a2063616c6c6572206973206e6f7420746865206f776e6572604482015290519081900360640190fd5b600654600160a01b900460ff1615611305576040805162461bcd60e51b815260206004820152601c60248201527f746f6b656e20697320616c72656164792065737461626c697368656400000000604482015290519081900360640190fd5b600755600680547fffffffffffffffffffffff00ffffffffffffffffffffffffffffffffffffffff6001600160a01b039093167fffffffffffffffffffffffff00000000000000000000000000000000000000009091161791909116600160a01b179055565b3390565b6001600160a01b0383166113b45760405162461bcd60e51b8152600401808060200182810382526024815260200180611b486024913960400191505060405180910390fd5b6001600160a01b0382166113f95760405162461bcd60e51b8152600401808060200182810382526022815260200180611a716022913960400191505060405180910390fd5b6001600160a01b03808416600081815260016020908152604080832094871680845294825291829020859055815185815291517f8c5be1e5ebec7d5bd14f71427d1e84f3dd0314c0f7b2291e5b200ac8c7c3b9259281900390910190a3505050565b600061149d83836040518060400160405280601e81526020017f536166654d6174683a207375627472616374696f6e206f766572666c6f770000815250611700565b9392505050565b600061149d83836040518060400160405280601a81526020017f536166654d6174683a206469766973696f6e206279207a65726f00000000000081525061199b565b60008282018381101561149d576040805162461bcd60e51b815260206004820152601b60248201527f536166654d6174683a206164646974696f6e206f766572666c6f770000000000604482015290519081900360640190fd5b60008261154f575060006105a8565b8282028284828161155c57fe5b041461149d5760405162461bcd60e51b8152600401808060200182810382526021815260200180611ab96021913960400191505060405180910390fd5b6001600160a01b0383166115de5760405162461bcd60e51b8152600401808060200182810382526025815260200180611b236025913960400191505060405180910390fd5b6001600160a01b0382166116235760405162461bcd60e51b8152600401808060200182810382526023815260200180611a066023913960400191505060405180910390fd5b61162e838383611a00565b61167181604051806060016040528060268152602001611a93602691396001600160a01b038616600090815260208190526040902054919063ffffffff61170016565b6001600160a01b0380851660009081526020819052604080822093909355908416815220546116a6908263ffffffff6114e616565b6001600160a01b038084166000818152602081815260409182902094909455805185815290519193928716927fddf252ad1be2c89b69c2b068fc378daa952ba7f163c4a11628f55a4df523b3ef92918290030190a3505050565b6000818484111561178f5760405162461bcd60e51b81526004018080602001828103825283818151815260200191508051906020019080838360005b8381101561175457818101518382015260200161173c565b50505050905090810190601f1680156117815780820380516001836020036101000a031916815260200191505b509250505060405180910390fd5b505050900390565b6001600160a01b0382166117dc5760405162461bcd60e51b8152600401808060200182810382526021815260200180611b026021913960400191505060405180910390fd5b6117e882600083611a00565b61182b81604051806060016040528060228152602001611a29602291396001600160a01b038516600090815260208190526040902054919063ffffffff61170016565b6001600160a01b038316600090815260208190526040902055600254611857908263ffffffff61145b16565b6002556040805182815290516000916001600160a01b038516917fddf252ad1be2c89b69c2b068fc378daa952ba7f163c4a11628f55a4df523b3ef9181900360200190a35050565b6001600160a01b0382166118fa576040805162461bcd60e51b815260206004820152601f60248201527f45524332303a206d696e7420746f20746865207a65726f206164647265737300604482015290519081900360640190fd5b61190660008383611a00565b600254611919908263ffffffff6114e616565b6002556001600160a01b038216600090815260208190526040902054611945908263ffffffff6114e616565b6001600160a01b0383166000818152602081815260408083209490945583518581529351929391927fddf252ad1be2c89b69c2b068fc378daa952ba7f163c4a11628f55a4df523b3ef9281900390910190a35050565b600081836119ea5760405162461bcd60e51b815260206004820181815283516024840152835190928392604490910191908501908083836000831561175457818101518382015260200161173c565b5060008385816119f657fe5b0495945050505050565b50505056fe45524332303a207472616e7366657220746f20746865207a65726f206164647265737345524332303a206275726e20616d6f756e7420657863656564732062616c616e63654f776e61626c653a206e6577206f776e657220697320746865207a65726f206164647265737345524332303a20617070726f766520746f20746865207a65726f206164647265737345524332303a207472616e7366657220616d6f756e7420657863656564732062616c616e6365536166654d6174683a206d756c7469706c69636174696f6e206f766572666c6f7745524332303a207472616e7366657220616d6f756e74206578636565647320616c6c6f77616e636545524332303a206275726e2066726f6d20746865207a65726f206164647265737345524332303a207472616e736665722066726f6d20746865207a65726f206164647265737345524332303a20617070726f76652066726f6d20746865207a65726f2061646472657373746f6b656e206d7573742062652065737461626c6973686564206265666f72652075736545524332303a2064656372656173656420616c6c6f77616e63652062656c6f77207a65726fa26469706673582212209e72b7e94388b38155b276ec6425e1a88611252f6f148af65ee28e016f35f98e64736f6c63430006080033",
  "immutableReferences": {},
  "source": "// SPDX-License-Identifier: GPL-3.0-only\npragma solidity ^0.6.8;\n\nimport \"openzeppelin-solidity/contracts/token/ERC20/ERC20.sol\";\nimport \"openzeppelin-solidity/contracts/token/ERC20/IERC20.sol\";\nimport \"openzeppelin-solidity/contracts/access/Ownable.sol\";\nimport \"openzeppelin-solidity/contracts/math/SafeMath.sol\";\n\ncontract C2 is ERC20, Ownable {\n    string public constant version = \"cc v0.1.3\";\n\n    ERC20 public backingToken;\n    using SafeMath for uint256;\n\n    bool public isEstablished = false;\n    modifier isLive() {\n        require(\n            isEstablished == true,\n            \"token must be established before use\"\n        );\n        _;\n    }\n    modifier isNotLive() {\n        require(isEstablished == false, \"token is already established\");\n        _;\n    }\n\n    bytes32 public agreementHash;\n\n    constructor() public ERC20(\"ContributorCredits\", \"C^2\") {\n    }\n\n    function establish(ERC20 backingTokenAddress, bytes32 agreement)\n        public\n        onlyOwner\n        isNotLive\n    {\n        agreementHash = agreement;\n        backingToken = backingTokenAddress;\n        isEstablished = true;\n    }\n\n    event Issued(\n        address indexed account,\n        uint256 c2Issued,\n        uint256 backingAmount\n    );\n\n    function issue(address account, uint256 amount) public onlyOwner isLive {\n        uint256 backingNeeded = backingNeededFor(amount);\n        _mint(account, amount);\n        backingToken.transferFrom(_msgSender(), address(this), backingNeeded);\n        emit Issued(account, amount, backingNeeded);\n    }\n\n    event Burned(\n        address indexed account,\n        uint256 c2Burned,\n        uint256 backingReturned\n    );\n\n    function burn(uint256 amount) public isLive {\n        uint256 associatedBacking = backingNeededFor(amount);\n        _burn(_msgSender(), amount);\n        backingToken.transfer(this.owner(), associatedBacking);\n        emit Burned(_msgSender(), amount, associatedBacking);\n    }\n\n    event CashedOut(\n        address indexed account,\n        uint256 c2Exchanged,\n        uint256 backingReceived\n    );\n\n    function cashout(uint256 amount) public isLive {\n        uint256 associatedBacking = backingNeededFor(amount);\n        _burn(_msgSender(), amount);\n        backingToken.transfer(_msgSender(), associatedBacking);\n        emit CashedOut(_msgSender(), amount, associatedBacking);\n    }\n\n    function bacBalance() public view returns (uint256) {\n        return backingToken.balanceOf(address(this));\n    }\n\n    function backingNeededFor(uint256 amountC2) public view returns (uint256) {\n        if (bacBalance() == 0 || totalSupply() == 0) {\n            return 0;\n        }\n\n        // The -1 +1 is to get the ceiling division, rather than the floor so that you always err on the side of having more backing\n        return amountC2.mul(bacBalance()).sub(1).div(totalSupply()).add(1);\n    }\n\n    function totalBackingNeededToFund() public view returns (uint256) {\n        if (totalSupply() == 0) {\n            return 0;\n        }\n        \n        // decimals normalization\n        if (decimals() > backingToken.decimals()) {\n            // ceiling division\n            return (totalSupply().sub(1)).div(uint256(10) ** (decimals() - backingToken.decimals())).add(1);\n        } else {\n            return totalSupply().mul(uint256(10) ** (backingToken.decimals() - decimals()));\n        }\n    }\n\n    function isFunded() public view returns (bool) {\n        return bacBalance() >= totalBackingNeededToFund();\n    }\n}\n",
  "sourcePath": "/home/vividn/Synchronize/Sunshine/cc-smart-contract/contracts/C2.sol",
  "compiler": {
    "name": "solc",
    "version": "0.6.8+commit.0bbfe453.Emscripten.clang"
  },
  "schemaVersion": "3.4.1",
  "updatedAt": "2021-07-04T15:59:03.443Z",
  "devdoc": {
    "methods": {
      "allowance(address,address)": {
        "details": "See {IERC20-allowance}."
      },
      "approve(address,uint256)": {
        "details": "See {IERC20-approve}.     * Requirements:     * - `spender` cannot be the zero address."
      },
      "balanceOf(address)": {
        "details": "See {IERC20-balanceOf}."
      },
      "decimals()": {
        "details": "Returns the number of decimals used to get its user representation. For example, if `decimals` equals `2`, a balance of `505` tokens should be displayed to a user as `5,05` (`505 / 10 ** 2`).     * Tokens usually opt for a value of 18, imitating the relationship between Ether and Wei. This is the value {ERC20} uses, unless {_setupDecimals} is called.     * NOTE: This information is only used for _display_ purposes: it in no way affects any of the arithmetic of the contract, including {IERC20-balanceOf} and {IERC20-transfer}."
      },
      "decreaseAllowance(address,uint256)": {
        "details": "Atomically decreases the allowance granted to `spender` by the caller.     * This is an alternative to {approve} that can be used as a mitigation for problems described in {IERC20-approve}.     * Emits an {Approval} event indicating the updated allowance.     * Requirements:     * - `spender` cannot be the zero address. - `spender` must have allowance for the caller of at least `subtractedValue`."
      },
      "increaseAllowance(address,uint256)": {
        "details": "Atomically increases the allowance granted to `spender` by the caller.     * This is an alternative to {approve} that can be used as a mitigation for problems described in {IERC20-approve}.     * Emits an {Approval} event indicating the updated allowance.     * Requirements:     * - `spender` cannot be the zero address."
      },
      "name()": {
        "details": "Returns the name of the token."
      },
      "owner()": {
        "details": "Returns the address of the current owner."
      },
      "renounceOwnership()": {
        "details": "Leaves the contract without owner. It will not be possible to call `onlyOwner` functions anymore. Can only be called by the current owner.     * NOTE: Renouncing ownership will leave the contract without an owner, thereby removing any functionality that is only available to the owner."
      },
      "symbol()": {
        "details": "Returns the symbol of the token, usually a shorter version of the name."
      },
      "totalSupply()": {
        "details": "See {IERC20-totalSupply}."
      },
      "transfer(address,uint256)": {
        "details": "See {IERC20-transfer}.     * Requirements:     * - `recipient` cannot be the zero address. - the caller must have a balance of at least `amount`."
      },
      "transferFrom(address,address,uint256)": {
        "details": "See {IERC20-transferFrom}.     * Emits an {Approval} event indicating the updated allowance. This is not required by the EIP. See the note at the beginning of {ERC20};     * Requirements: - `sender` and `recipient` cannot be the zero address. - `sender` must have a balance of at least `amount`. - the caller must have allowance for ``sender``'s tokens of at least `amount`."
      },
      "transferOwnership(address)": {
        "details": "Transfers ownership of the contract to a new account (`newOwner`). Can only be called by the current owner."
      }
    }
  },
  "userdoc": {
    "methods": {}
  }
}