{
  "contractName": "C3",
  "abi": [
    {
      "inputs": [],
      "stateMutability": "nonpayable",
      "type": "constructor"
    },
    {
      "anonymous": false,
      "inputs": [
        {
          "indexed": true,
          "internalType": "address",
          "name": "owner",
          "type": "address"
        },
        {
          "indexed": true,
          "internalType": "address",
          "name": "spender",
          "type": "address"
        },
        {
          "indexed": false,
          "internalType": "uint256",
          "name": "value",
          "type": "uint256"
        }
      ],
      "name": "Approval",
      "type": "event"
    },
    {
      "anonymous": false,
      "inputs": [
        {
          "indexed": true,
          "internalType": "address",
          "name": "account",
          "type": "address"
        },
        {
          "indexed": false,
          "internalType": "uint256",
          "name": "c3Burned",
          "type": "uint256"
        }
      ],
      "name": "Burned",
      "type": "event"
    },
    {
      "anonymous": false,
      "inputs": [
        {
          "indexed": true,
          "internalType": "address",
          "name": "account",
          "type": "address"
        },
        {
          "indexed": false,
          "internalType": "uint256",
          "name": "c3CashedOut",
          "type": "uint256"
        },
        {
          "indexed": false,
          "internalType": "uint256",
          "name": "bacReceived",
          "type": "uint256"
        }
      ],
      "name": "CashedOut",
      "type": "event"
    },
    {
      "anonymous": false,
      "inputs": [],
      "name": "CompletelyFunded",
      "type": "event"
    },
    {
      "anonymous": false,
      "inputs": [
        {
          "indexed": true,
          "internalType": "address",
          "name": "account",
          "type": "address"
        },
        {
          "indexed": false,
          "internalType": "uint256",
          "name": "bacFunded",
          "type": "uint256"
        }
      ],
      "name": "Funded",
      "type": "event"
    },
    {
      "anonymous": false,
      "inputs": [
        {
          "indexed": true,
          "internalType": "address",
          "name": "account",
          "type": "address"
        },
        {
          "indexed": false,
          "internalType": "uint256",
          "name": "c3Issued",
          "type": "uint256"
        }
      ],
      "name": "Issued",
      "type": "event"
    },
    {
      "anonymous": false,
      "inputs": [
        {
          "indexed": true,
          "internalType": "address",
          "name": "previousOwner",
          "type": "address"
        },
        {
          "indexed": true,
          "internalType": "address",
          "name": "newOwner",
          "type": "address"
        }
      ],
      "name": "OwnershipTransferred",
      "type": "event"
    },
    {
      "anonymous": false,
      "inputs": [],
      "name": "SharesFinalized",
      "type": "event"
    },
    {
      "anonymous": false,
      "inputs": [
        {
          "indexed": true,
          "internalType": "address",
          "name": "from",
          "type": "address"
        },
        {
          "indexed": true,
          "internalType": "address",
          "name": "to",
          "type": "address"
        },
        {
          "indexed": false,
          "internalType": "uint256",
          "name": "value",
          "type": "uint256"
        }
      ],
      "name": "Transfer",
      "type": "event"
    },
    {
      "inputs": [],
      "name": "agreementHash",
      "outputs": [
        {
          "internalType": "bytes32",
          "name": "",
          "type": "bytes32"
        }
      ],
      "stateMutability": "view",
      "type": "function",
      "constant": true
    },
    {
      "inputs": [
        {
          "internalType": "address",
          "name": "owner",
          "type": "address"
        },
        {
          "internalType": "address",
          "name": "spender",
          "type": "address"
        }
      ],
      "name": "allowance",
      "outputs": [
        {
          "internalType": "uint256",
          "name": "",
          "type": "uint256"
        }
      ],
      "stateMutability": "view",
      "type": "function",
      "constant": true
    },
    {
      "inputs": [
        {
          "internalType": "address",
          "name": "spender",
          "type": "address"
        },
        {
          "internalType": "uint256",
          "name": "amount",
          "type": "uint256"
        }
      ],
      "name": "approve",
      "outputs": [
        {
          "internalType": "bool",
          "name": "",
          "type": "bool"
        }
      ],
      "stateMutability": "nonpayable",
      "type": "function"
    },
    {
      "inputs": [
        {
          "internalType": "address",
          "name": "",
          "type": "address"
        }
      ],
      "name": "bacWithdrawn",
      "outputs": [
        {
          "internalType": "uint256",
          "name": "",
          "type": "uint256"
        }
      ],
      "stateMutability": "view",
      "type": "function",
      "constant": true
    },
    {
      "inputs": [],
      "name": "backingToken",
      "outputs": [
        {
          "internalType": "contract ERC20",
          "name": "",
          "type": "address"
        }
      ],
      "stateMutability": "view",
      "type": "function",
      "constant": true
    },
    {
      "inputs": [
        {
          "internalType": "address",
          "name": "account",
          "type": "address"
        }
      ],
      "name": "balanceOf",
      "outputs": [
        {
          "internalType": "uint256",
          "name": "",
          "type": "uint256"
        }
      ],
      "stateMutability": "view",
      "type": "function",
      "constant": true
    },
    {
      "inputs": [],
      "name": "decimals",
      "outputs": [
        {
          "internalType": "uint8",
          "name": "",
          "type": "uint8"
        }
      ],
      "stateMutability": "view",
      "type": "function",
      "constant": true
    },
    {
      "inputs": [
        {
          "internalType": "address",
          "name": "spender",
          "type": "address"
        },
        {
          "internalType": "uint256",
          "name": "subtractedValue",
          "type": "uint256"
        }
      ],
      "name": "decreaseAllowance",
      "outputs": [
        {
          "internalType": "bool",
          "name": "",
          "type": "bool"
        }
      ],
      "stateMutability": "nonpayable",
      "type": "function"
    },
    {
      "inputs": [
        {
          "internalType": "address",
          "name": "spender",
          "type": "address"
        },
        {
          "internalType": "uint256",
          "name": "addedValue",
          "type": "uint256"
        }
      ],
      "name": "increaseAllowance",
      "outputs": [
        {
          "internalType": "bool",
          "name": "",
          "type": "bool"
        }
      ],
      "stateMutability": "nonpayable",
      "type": "function"
    },
    {
      "inputs": [],
      "name": "isEstablished",
      "outputs": [
        {
          "internalType": "bool",
          "name": "",
          "type": "bool"
        }
      ],
      "stateMutability": "view",
      "type": "function",
      "constant": true
    },
    {
      "inputs": [],
      "name": "name",
      "outputs": [
        {
          "internalType": "string",
          "name": "",
          "type": "string"
        }
      ],
      "stateMutability": "view",
      "type": "function",
      "constant": true
    },
    {
      "inputs": [],
      "name": "owner",
      "outputs": [
        {
          "internalType": "address",
          "name": "",
          "type": "address"
        }
      ],
      "stateMutability": "view",
      "type": "function",
      "constant": true
    },
    {
      "inputs": [],
      "name": "renounceOwnership",
      "outputs": [],
      "stateMutability": "nonpayable",
      "type": "function"
    },
    {
      "inputs": [
        {
          "internalType": "address",
          "name": "",
          "type": "address"
        }
      ],
      "name": "shares",
      "outputs": [
        {
          "internalType": "uint256",
          "name": "",
          "type": "uint256"
        }
      ],
      "stateMutability": "view",
      "type": "function",
      "constant": true
    },
    {
      "inputs": [],
      "name": "sharesFinalized",
      "outputs": [
        {
          "internalType": "bool",
          "name": "",
          "type": "bool"
        }
      ],
      "stateMutability": "view",
      "type": "function",
      "constant": true
    },
    {
      "inputs": [],
      "name": "symbol",
      "outputs": [
        {
          "internalType": "string",
          "name": "",
          "type": "string"
        }
      ],
      "stateMutability": "view",
      "type": "function",
      "constant": true
    },
    {
      "inputs": [],
      "name": "totalAmountFunded",
      "outputs": [
        {
          "internalType": "uint256",
          "name": "",
          "type": "uint256"
        }
      ],
      "stateMutability": "view",
      "type": "function",
      "constant": true
    },
    {
      "inputs": [],
      "name": "totalSupply",
      "outputs": [
        {
          "internalType": "uint256",
          "name": "",
          "type": "uint256"
        }
      ],
      "stateMutability": "view",
      "type": "function",
      "constant": true
    },
    {
      "inputs": [
        {
          "internalType": "address",
          "name": "sender",
          "type": "address"
        },
        {
          "internalType": "address",
          "name": "recipient",
          "type": "address"
        },
        {
          "internalType": "uint256",
          "name": "amount",
          "type": "uint256"
        }
      ],
      "name": "transferFrom",
      "outputs": [
        {
          "internalType": "bool",
          "name": "",
          "type": "bool"
        }
      ],
      "stateMutability": "nonpayable",
      "type": "function"
    },
    {
      "inputs": [
        {
          "internalType": "address",
          "name": "newOwner",
          "type": "address"
        }
      ],
      "name": "transferOwnership",
      "outputs": [],
      "stateMutability": "nonpayable",
      "type": "function"
    },
    {
      "inputs": [],
      "name": "version",
      "outputs": [
        {
          "internalType": "string",
          "name": "",
          "type": "string"
        }
      ],
      "stateMutability": "view",
      "type": "function",
      "constant": true
    },
    {
      "inputs": [
        {
          "internalType": "contract ERC20",
          "name": "backingTokenAddress",
          "type": "address"
        },
        {
          "internalType": "bytes32",
          "name": "agreement",
          "type": "bytes32"
        }
      ],
      "name": "establish",
      "outputs": [],
      "stateMutability": "nonpayable",
      "type": "function"
    },
    {
      "inputs": [
        {
          "internalType": "address",
          "name": "account",
          "type": "address"
        },
        {
          "internalType": "uint256",
          "name": "amount",
          "type": "uint256"
        }
      ],
      "name": "issue",
      "outputs": [],
      "stateMutability": "nonpayable",
      "type": "function"
    },
    {
      "inputs": [],
      "name": "finalize",
      "outputs": [],
      "stateMutability": "nonpayable",
      "type": "function"
    },
    {
      "inputs": [
        {
          "internalType": "address",
          "name": "recipient",
          "type": "address"
        },
        {
          "internalType": "uint256",
          "name": "amount",
          "type": "uint256"
        }
      ],
      "name": "transfer",
      "outputs": [
        {
          "internalType": "bool",
          "name": "",
          "type": "bool"
        }
      ],
      "stateMutability": "nonpayable",
      "type": "function"
    },
    {
      "inputs": [
        {
          "internalType": "address",
          "name": "recipient",
          "type": "address"
        }
      ],
      "name": "transferAll",
      "outputs": [
        {
          "internalType": "bool",
          "name": "",
          "type": "bool"
        }
      ],
      "stateMutability": "nonpayable",
      "type": "function"
    },
    {
      "inputs": [
        {
          "internalType": "uint256",
          "name": "amount",
          "type": "uint256"
        }
      ],
      "name": "burn",
      "outputs": [],
      "stateMutability": "nonpayable",
      "type": "function"
    },
    {
      "inputs": [
        {
          "internalType": "address",
          "name": "account",
          "type": "address"
        }
      ],
      "name": "withdrawableBac",
      "outputs": [
        {
          "internalType": "uint256",
          "name": "",
          "type": "uint256"
        }
      ],
      "stateMutability": "view",
      "type": "function",
      "constant": true
    },
    {
      "inputs": [
        {
          "internalType": "address",
          "name": "account",
          "type": "address"
        }
      ],
      "name": "cashableC3",
      "outputs": [
        {
          "internalType": "uint256",
          "name": "",
          "type": "uint256"
        }
      ],
      "stateMutability": "view",
      "type": "function",
      "constant": true
    },
    {
      "inputs": [],
      "name": "cashout",
      "outputs": [],
      "stateMutability": "nonpayable",
      "type": "function"
    },
    {
      "inputs": [],
      "name": "bacBalance",
      "outputs": [
        {
          "internalType": "uint256",
          "name": "",
          "type": "uint256"
        }
      ],
      "stateMutability": "view",
      "type": "function",
      "constant": true
    },
    {
      "inputs": [
        {
          "internalType": "uint256",
          "name": "amountC3",
          "type": "uint256"
        }
      ],
      "name": "backingNeededFor",
      "outputs": [
        {
          "internalType": "uint256",
          "name": "",
          "type": "uint256"
        }
      ],
      "stateMutability": "view",
      "type": "function",
      "constant": true
    },
    {
      "inputs": [],
      "name": "totalBackingNeededToFund",
      "outputs": [
        {
          "internalType": "uint256",
          "name": "",
          "type": "uint256"
        }
      ],
      "stateMutability": "view",
      "type": "function",
      "constant": true
    },
    {
      "inputs": [],
      "name": "remainingBackingNeededToFund",
      "outputs": [
        {
          "internalType": "uint256",
          "name": "",
          "type": "uint256"
        }
      ],
      "stateMutability": "view",
      "type": "function",
      "constant": true
    },
    {
      "inputs": [],
      "name": "isFunded",
      "outputs": [
        {
          "internalType": "bool",
          "name": "",
          "type": "bool"
        }
      ],
      "stateMutability": "view",
      "type": "function",
      "constant": true
    },
    {
      "inputs": [
        {
          "internalType": "uint256",
          "name": "amount",
          "type": "uint256"
        }
      ],
      "name": "fund",
      "outputs": [],
      "stateMutability": "nonpayable",
      "type": "function"
    }
  ],
  "bytecode": "0x60806040526006805460ff60a01b191690556000600855600b805460ff191690553480156200002d57600080fd5b50604080518082018252601e81527f436f6e74696e756f757320436f6e7472696275746f7220437265646974730000602080830191825283518085019094526002845261433360f01b9084015281519192916200008d9160039162000129565b508051620000a390600490602084019062000129565b50506005805460ff19166012179055506000620000c86001600160e01b036200012416565b60058054610100600160a81b0319166101006001600160a01b03841690810291909117909155604051919250906000907f8be0079c531659141344cd1fd0a4f28419497f9722a3daafe3b4186f6b6457e0908290a350620001cb565b335b90565b828054600181600116156101000203166002900490600052602060002090601f016020900481019282601f106200016c57805160ff19168380011785556200019c565b828001600101855582156200019c579182015b828111156200019c5782518255916020019190600101906200017f565b50620001aa929150620001ae565b5090565b6200012691905b80821115620001aa5760008155600101620001b5565b6127b580620001db6000396000f3fe608060405234801561001057600080fd5b506004361061025c5760003560e01c8063867904b411610145578063c130feb3116100bd578063d0bacde81161008c578063e2686f1c11610071578063e2686f1c14610615578063f2fde38b1461063b578063f8a5d7f2146106615761025c565b8063d0bacde8146105c1578063dd62ed3e146105e75761025c565b8063c130feb31461053b578063c668789714610561578063ca1d209d1461057e578063ce7c2ac21461059b5761025c565b80639aec43e011610114578063a3a7e7f3116100f9578063a3a7e7f3146104bd578063a457c2d7146104e3578063a9059cbb1461050f5761025c565b80639aec43e0146104ad578063a2f25059146104b55761025c565b8063867904b41461046957806386a54c01146104955780638da5cb5b1461049d57806395d89b41146104a55761025c565b806342966c68116101d85780635a3c11c7116101a7578063715018a61161018c578063715018a6146104515780637c6543031461045957806384054d3d146104615761025c565b80635a3c11c71461042357806370a082311461042b5761025c565b806342966c68146103d057806347e621b7146103ef5780634bb278f31461041357806354fd4d501461041b5761025c565b8063216db5511161022f578063313ce56711610214578063313ce5671461037e578063395093511461039c57806340c5e2ee146103c85761025c565b8063216db5511461034057806323b872dd146103485761025c565b806306fdde0314610261578063095ea7b3146102de5780630ab55d0b1461031e57806318160ddd14610338575b600080fd5b61026961068d565b6040805160208082528351818301528351919283929083019185019080838360005b838110156102a357818101518382015260200161028b565b50505050905090810190601f1680156102d05780820380516001836020036101000a031916815260200191505b509250505060405180910390f35b61030a600480360360408110156102f457600080fd5b506001600160a01b038135169060200135610724565b604080519115158252519081900360200190f35b610326610742565b60408051918252519081900360200190f35b610326610748565b61032661074e565b61030a6004803603606081101561035e57600080fd5b506001600160a01b0381358116916020810135909116906040013561095b565b6103866109e8565b6040805160ff9092168252519081900360200190f35b61030a600480360360408110156103b257600080fd5b506001600160a01b0381351690602001356109f1565b610326610a45565b6103ed600480360360208110156103e657600080fd5b5035610a4b565b005b6103f7610cc7565b604080516001600160a01b039092168252519081900360200190f35b6103ed610cd6565b610269610d82565b610326610dbb565b6103266004803603602081101561044157600080fd5b50356001600160a01b0316610dd0565b6103ed610def565b61030a610ec0565b6103ed610ed4565b6103ed6004803603604081101561047f57600080fd5b506001600160a01b0381351690602001356110e3565b61030a61126f565b6103f7611278565b61026961128c565b61030a6112ed565b6103266112fd565b61030a600480360360208110156104d357600080fd5b50356001600160a01b0316611392565b61030a600480360360408110156104f957600080fd5b506001600160a01b03813516906020013561146b565b61030a6004803603604081101561052557600080fd5b506001600160a01b0381351690602001356114d9565b6103266004803603602081101561055157600080fd5b50356001600160a01b0316611718565b6103266004803603602081101561057757600080fd5b5035611785565b6103ed6004803603602081101561059457600080fd5b50356117da565b610326600480360360208110156105b157600080fd5b50356001600160a01b0316611ae4565b610326600480360360208110156105d757600080fd5b50356001600160a01b0316611af6565b610326600480360360408110156105fd57600080fd5b506001600160a01b0381358116916020013516611bf7565b6103266004803603602081101561062b57600080fd5b50356001600160a01b0316611c22565b6103ed6004803603602081101561065157600080fd5b50356001600160a01b0316611c34565b6103ed6004803603604081101561067757600080fd5b506001600160a01b038135169060200135611d61565b60038054604080516020601f60026000196101006001881615020190951694909404938401819004810282018101909252828152606093909290918301828280156107195780601f106106ee57610100808354040283529160200191610719565b820191906000526020600020905b8154815290600101906020018083116106fc57829003601f168201915b505050505090505b90565b6000610738610731611e9a565b8484611e9e565b5060015b92915050565b60075481565b60025490565b6000610758610748565b61076457506000610721565b600660009054906101000a90046001600160a01b03166001600160a01b031663313ce5676040518163ffffffff1660e01b815260040160206040518083038186803b1580156107b257600080fd5b505afa1580156107c6573d6000803e3d6000fd5b505050506040513d60208110156107dc57600080fd5b505160ff166107e96109e8565b60ff1611156108bb576108b460016108a8600660009054906101000a90046001600160a01b03166001600160a01b031663313ce5676040518163ffffffff1660e01b815260040160206040518083038186803b15801561084857600080fd5b505afa15801561085c573d6000803e3d6000fd5b505050506040513d602081101561087257600080fd5b505161087c6109e8565b0360ff16600a0a61089c6001610890610748565b9063ffffffff611f8a16565b9063ffffffff611fe716565b9063ffffffff61204e16565b9050610721565b6108b46108c66109e8565b600660009054906101000a90046001600160a01b03166001600160a01b031663313ce5676040518163ffffffff1660e01b815260040160206040518083038186803b15801561091457600080fd5b505afa158015610928573d6000803e3d6000fd5b505050506040513d602081101561093e57600080fd5b50510360ff16600a0a61094f610748565b9063ffffffff6120a816565b6000610968848484612101565b6109de84610974611e9a565b6109d985604051806060016040528060288152602001612635602891396001600160a01b038a166000908152600160205260408120906109b2611e9a565b6001600160a01b03168152602081019190915260400160002054919063ffffffff61226816565b611e9e565b5060019392505050565b60055460ff1690565b60006107386109fe611e9a565b846109d98560016000610a0f611e9a565b6001600160a01b03908116825260208083019390935260409182016000908120918c16815292529020549063ffffffff61204e16565b60085481565b600654600160a01b900460ff161515600114610a985760405162461bcd60e51b81526004018080602001828103825260248152602001806127376024913960400191505060405180910390fd5b610aa8610aa3611e9a565b611718565b15610ae45760405162461bcd60e51b81526004018080602001828103825260308152602001806125bc6030913960400191505060405180910390fd5b6000610aef82611785565b9050610b02610afc611e9a565b836122ff565b610b388260096000610b12611e9a565b6001600160a01b031681526020810191909152604001600020549063ffffffff611f8a16565b60096000610b44611e9a565b6001600160a01b03908116825260208083019390935260409182016000209390935560065481517f8da5cb5b000000000000000000000000000000000000000000000000000000008152915193169263a9059cbb923092638da5cb5b9260048083019392829003018186803b158015610bbc57600080fd5b505afa158015610bd0573d6000803e3d6000fd5b505050506040513d6020811015610be657600080fd5b5051604080517fffffffff0000000000000000000000000000000000000000000000000000000060e085901b1681526001600160a01b039092166004830152602482018590525160448083019260209291908290030181600087803b158015610c4e57600080fd5b505af1158015610c62573d6000803e3d6000fd5b505050506040513d6020811015610c7857600080fd5b50610c839050611e9a565b6001600160a01b03167f696de425f79f4a40bc6d2122ca50507f0efbeabbff86a84871b7196ab8ea8df7836040518082815260200191505060405180910390a25050565b6006546001600160a01b031681565b610cde611e9a565b6001600160a01b0316610cef611278565b6001600160a01b031614610d4a576040805162461bcd60e51b815260206004820181905260248201527f4f776e61626c653a2063616c6c6572206973206e6f7420746865206f776e6572604482015290519081900360640190fd5b600b805460ff191660011790556040517ffdb0776c5671da7290e805be2c4ef135c15a3462c014dc5af80153857eb923ca90600090a1565b6040518060400160405280600981526020017f43332076312e302e30000000000000000000000000000000000000000000000081525081565b6000610dcb60085461089061074e565b905090565b6001600160a01b0381166000908152602081905260409020545b919050565b610df7611e9a565b6001600160a01b0316610e08611278565b6001600160a01b031614610e63576040805162461bcd60e51b815260206004820181905260248201527f4f776e61626c653a2063616c6c6572206973206e6f7420746865206f776e6572604482015290519081900360640190fd5b60055460405160009161010090046001600160a01b0316907f8be0079c531659141344cd1fd0a4f28419497f9722a3daafe3b4186f6b6457e0908390a36005805474ffffffffffffffffffffffffffffffffffffffff0019169055565b6000610eca61074e565b6008541015905090565b600654600160a01b900460ff161515600114610f215760405162461bcd60e51b81526004018080602001828103825260248152602001806127376024913960400191505060405180910390fd5b60096000610f2d611e9a565b6001600160a01b031681526020810191909152604001600020541580610f535750600854155b15610f5d576110e1565b6000610f6a610aa3611e9a565b905080610f7757506110e1565b6000610f89610f84611e9a565b611af6565b9050610f9d610f96611e9a565b3083612101565b610fd382600a6000610fad611e9a565b6001600160a01b031681526020810191909152604001600020549063ffffffff61204e16565b600a6000610fdf611e9a565b6001600160a01b03168152602081019190915260400160002055611001611e9a565b6001600160a01b03167f1c1db2792f0323a7dd4184610c505d7367ceea647bc855ecac1a7c89304d2ff78284604051808381526020018281526020019250505060405180910390a26006546001600160a01b031663a9059cbb611062611e9a565b846040518363ffffffff1660e01b815260040180836001600160a01b03166001600160a01b0316815260200182815260200192505050602060405180830381600087803b1580156110b257600080fd5b505af11580156110c6573d6000803e3d6000fd5b505050506040513d60208110156110dc57600080fd5b505050505b565b6110eb611e9a565b6001600160a01b03166110fc611278565b6001600160a01b031614611157576040805162461bcd60e51b815260206004820181905260248201527f4f776e61626c653a2063616c6c6572206973206e6f7420746865206f776e6572604482015290519081900360640190fd5b600654600160a01b900460ff1615156001146111a45760405162461bcd60e51b81526004018080602001828103825260248152602001806127376024913960400191505060405180910390fd5b600b5460ff16156111e65760405162461bcd60e51b81526004018080602001828103825260358152602001806127026035913960400191505060405180910390fd5b6111f08282612407565b6001600160a01b038216600090815260096020526040902054611219908263ffffffff61204e16565b6001600160a01b038316600081815260096020908152604091829020939093558051848152905191927fa59f12e354e8cd10bb74c559844c2dd69a5458e31fe56c7594c62ca57480509a92918290030190a25050565b600b5460ff1681565b60055461010090046001600160a01b031690565b60048054604080516020601f60026000196101006001881615020190951694909404938401819004810282018101909252828152606093909290918301828280156107195780601f106106ee57610100808354040283529160200191610719565b600654600160a01b900460ff1681565b600654604080517f70a0823100000000000000000000000000000000000000000000000000000000815230600482015290516000926001600160a01b0316916370a08231916024808301926020929190829003018186803b15801561136157600080fd5b505afa158015611375573d6000803e3d6000fd5b505050506040513d602081101561138b57600080fd5b5051905090565b600654600090600160a01b900460ff1615156001146113e25760405162461bcd60e51b81526004018080602001828103825260248152602001806127376024913960400191505060405180910390fd5b61073c82306370a082316113f4611e9a565b6040518263ffffffff1660e01b815260040180826001600160a01b03166001600160a01b0316815260200191505060206040518083038186803b15801561143a57600080fd5b505afa15801561144e573d6000803e3d6000fd5b505050506040513d602081101561146457600080fd5b50516114d9565b6000610738611478611e9a565b846109d98560405180606001604052806025815260200161275b60259139600160006114a2611e9a565b6001600160a01b03908116825260208083019390935260409182016000908120918d1681529252902054919063ffffffff61226816565b600654600090600160a01b900460ff1615156001146115295760405162461bcd60e51b81526004018080602001828103825260248152602001806127376024913960400191505060405180910390fd5b306370a08231611537611e9a565b6040518263ffffffff1660e01b815260040180826001600160a01b03166001600160a01b0316815260200191505060206040518083038186803b15801561157d57600080fd5b505afa158015611591573d6000803e3d6000fd5b505050506040513d60208110156115a757600080fd5b505182146115e65760405162461bcd60e51b81526004018080602001828103825260288152602001806125ec6028913960400191505060405180910390fd5b61162f600960006115f5611e9a565b6001600160a01b0390811682526020808301939093526040918201600090812054918816815260099093529120549063ffffffff61204e16565b6001600160a01b03841660009081526009602081905260408220929092559081611657611e9a565b6001600160a01b03166001600160a01b03168152602001908152602001600020819055506116c4600a600061168a611e9a565b6001600160a01b03908116825260208083019390935260409182016000908120549188168152600a9093529120549063ffffffff61204e16565b6001600160a01b0384166000908152600a6020819052604082209290925590816116ec611e9a565b6001600160a01b03168152602081019190915260400160002055610738611711611e9a565b8484612101565b600080611751611726610748565b6001600160a01b03851660009081526009602052604090205460085461089c9163ffffffff6120a816565b6001600160a01b0384166000908152600a602052604090205490915061177e90829063ffffffff611f8a16565b9392505050565b600061178f6112fd565b15806117a0575061179e610748565b155b156117ad57506000610dea565b61073c60016108a86117bd610748565b61089c60016108906117cd6112fd565b899063ffffffff6120a816565b600654600160a01b900460ff1615156001146118275760405162461bcd60e51b81526004018080602001828103825260248152602001806127376024913960400191505060405180910390fd5b61182f610ec0565b1561186b5760405162461bcd60e51b815260040180806020018281038252603b81526020018061267e603b913960400191505060405180910390fd5b6000611875610dbb565b90508181116119fd57600854611891908263ffffffff61204e16565b600855600b5460ff166118d557600b805460ff191660011790556040517ffdb0776c5671da7290e805be2c4ef135c15a3462c014dc5af80153857eb923ca90600090a15b6118dd611e9a565b6001600160a01b03167f5af8184bef8e4b45eb9f6ed7734d04da38ced226495548f46e0c8ff8d7d9a524826040518082815260200191505060405180910390a26040517fbf85a63dd9cc2d358e4040ca3d233a509637cefa911fede1227c86803d1464ac90600090a16006546001600160a01b03166323b872dd61195f611e9a565b604080517fffffffff0000000000000000000000000000000000000000000000000000000060e085901b1681526001600160a01b039092166004830152306024830152604482018590525160648083019260209291908290030181600087803b1580156119cb57600080fd5b505af11580156119df573d6000803e3d6000fd5b505050506040513d60208110156119f557600080fd5b50611ae09050565b600854611a10908363ffffffff61204e16565b600855611a1b611e9a565b6001600160a01b03167f5af8184bef8e4b45eb9f6ed7734d04da38ced226495548f46e0c8ff8d7d9a524836040518082815260200191505060405180910390a26006546001600160a01b03166323b872dd611a74611e9a565b604080517fffffffff0000000000000000000000000000000000000000000000000000000060e085901b1681526001600160a01b039092166004830152306024830152604482018690525160648083019260209291908290030181600087803b1580156110b257600080fd5b5050565b60096020526000908152604090205481565b600080611b2f611b0461074e565b6008546001600160a01b03861660009081526009602052604090205461089c9163ffffffff6120a816565b90506000611bdd306001600160a01b03166370a08231866040518263ffffffff1660e01b815260040180826001600160a01b03166001600160a01b0316815260200191505060206040518083038186803b158015611b8c57600080fd5b505afa158015611ba0573d6000803e3d6000fd5b505050506040513d6020811015611bb657600080fd5b50516001600160a01b0386166000908152600960205260409020549063ffffffff611f8a16565b9050611bef828263ffffffff611f8a16565b949350505050565b6001600160a01b03918216600090815260016020908152604080832093909416825291909152205490565b600a6020526000908152604090205481565b611c3c611e9a565b6001600160a01b0316611c4d611278565b6001600160a01b031614611ca8576040805162461bcd60e51b815260206004820181905260248201527f4f776e61626c653a2063616c6c6572206973206e6f7420746865206f776e6572604482015290519081900360640190fd5b6001600160a01b038116611ced5760405162461bcd60e51b815260040180806020018281038252602681526020018061254e6026913960400191505060405180910390fd5b6005546040516001600160a01b0380841692610100900416907f8be0079c531659141344cd1fd0a4f28419497f9722a3daafe3b4186f6b6457e090600090a3600580546001600160a01b039092166101000274ffffffffffffffffffffffffffffffffffffffff0019909216919091179055565b611d69611e9a565b6001600160a01b0316611d7a611278565b6001600160a01b031614611dd5576040805162461bcd60e51b815260206004820181905260248201527f4f776e61626c653a2063616c6c6572206973206e6f7420746865206f776e6572604482015290519081900360640190fd5b600654600160a01b900460ff1615611e34576040805162461bcd60e51b815260206004820152601c60248201527f746f6b656e20697320616c72656164792065737461626c697368656400000000604482015290519081900360640190fd5b600755600680547fffffffffffffffffffffff00ffffffffffffffffffffffffffffffffffffffff6001600160a01b039093167fffffffffffffffffffffffff00000000000000000000000000000000000000009091161791909116600160a01b179055565b3390565b6001600160a01b038316611ee35760405162461bcd60e51b81526004018080602001828103825260248152602001806126de6024913960400191505060405180910390fd5b6001600160a01b038216611f285760405162461bcd60e51b81526004018080602001828103825260228152602001806125746022913960400191505060405180910390fd5b6001600160a01b03808416600081815260016020908152604080832094871680845294825291829020859055815185815291517f8c5be1e5ebec7d5bd14f71427d1e84f3dd0314c0f7b2291e5b200ac8c7c3b9259281900390910190a3505050565b600082821115611fe1576040805162461bcd60e51b815260206004820152601e60248201527f536166654d6174683a207375627472616374696f6e206f766572666c6f770000604482015290519081900360640190fd5b50900390565b600080821161203d576040805162461bcd60e51b815260206004820152601a60248201527f536166654d6174683a206469766973696f6e206279207a65726f000000000000604482015290519081900360640190fd5b81838161204657fe5b049392505050565b60008282018381101561177e576040805162461bcd60e51b815260206004820152601b60248201527f536166654d6174683a206164646974696f6e206f766572666c6f770000000000604482015290519081900360640190fd5b6000826120b75750600061073c565b828202828482816120c457fe5b041461177e5760405162461bcd60e51b81526004018080602001828103825260218152602001806126146021913960400191505060405180910390fd5b6001600160a01b0383166121465760405162461bcd60e51b81526004018080602001828103825260258152602001806126b96025913960400191505060405180910390fd5b6001600160a01b03821661218b5760405162461bcd60e51b81526004018080602001828103825260238152602001806125096023913960400191505060405180910390fd5b612196838383612503565b6121d981604051806060016040528060268152602001612596602691396001600160a01b038616600090815260208190526040902054919063ffffffff61226816565b6001600160a01b03808516600090815260208190526040808220939093559084168152205461220e908263ffffffff61204e16565b6001600160a01b038084166000818152602081815260409182902094909455805185815290519193928716927fddf252ad1be2c89b69c2b068fc378daa952ba7f163c4a11628f55a4df523b3ef92918290030190a3505050565b600081848411156122f75760405162461bcd60e51b81526004018080602001828103825283818151815260200191508051906020019080838360005b838110156122bc5781810151838201526020016122a4565b50505050905090810190601f1680156122e95780820380516001836020036101000a031916815260200191505b509250505060405180910390fd5b505050900390565b6001600160a01b0382166123445760405162461bcd60e51b815260040180806020018281038252602181526020018061265d6021913960400191505060405180910390fd5b61235082600083612503565b6123938160405180606001604052806022815260200161252c602291396001600160a01b038516600090815260208190526040902054919063ffffffff61226816565b6001600160a01b0383166000908152602081905260409020556002546123bf908263ffffffff611f8a16565b6002556040805182815290516000916001600160a01b038516917fddf252ad1be2c89b69c2b068fc378daa952ba7f163c4a11628f55a4df523b3ef9181900360200190a35050565b6001600160a01b038216612462576040805162461bcd60e51b815260206004820152601f60248201527f45524332303a206d696e7420746f20746865207a65726f206164647265737300604482015290519081900360640190fd5b61246e60008383612503565b600254612481908263ffffffff61204e16565b6002556001600160a01b0382166000908152602081905260409020546124ad908263ffffffff61204e16565b6001600160a01b0383166000818152602081815260408083209490945583518581529351929391927fddf252ad1be2c89b69c2b068fc378daa952ba7f163c4a11628f55a4df523b3ef9281900390910190a35050565b50505056fe45524332303a207472616e7366657220746f20746865207a65726f206164647265737345524332303a206275726e20616d6f756e7420657863656564732062616c616e63654f776e61626c653a206e6577206f776e657220697320746865207a65726f206164647265737345524332303a20617070726f766520746f20746865207a65726f206164647265737345524332303a207472616e7366657220616d6f756e7420657863656564732062616c616e63656275726e7320617265206e6f7420616c6c6f776564207768656e206120636173686f757420697320706f737369626c654f6e6c79207472616e7366657273206f6620616c6c20746f6b656e732061726520616c6c6f776564536166654d6174683a206d756c7469706c69636174696f6e206f766572666c6f7745524332303a207472616e7366657220616d6f756e74206578636565647320616c6c6f77616e636545524332303a206275726e2066726f6d20746865207a65726f206164647265737363616e6e6f742066756e64206120636f6e7472616374207468617420697320697320616c726561647920636f6d706c6574656c792066756e64656445524332303a207472616e736665722066726f6d20746865207a65726f206164647265737345524332303a20617070726f76652066726f6d20746865207a65726f206164647265737363616e6e6f74206973737565206d6f7265204333206166746572207368617265732068617665206265656e2066696e616c697a6564746f6b656e206d7573742062652065737461626c6973686564206265666f72652075736545524332303a2064656372656173656420616c6c6f77616e63652062656c6f77207a65726fa2646970667358221220249ac5bba8e5b28dbe2a9282105b175aaa25657a2debfeafe4208b94227f399964736f6c63430006080033",
  "immutableReferences": {},
  "source": "// SPDX-License-Identifier: GPL-3.0-only\npragma solidity ^0.6.8;\n\nimport \"openzeppelin-solidity/contracts/token/ERC20/ERC20.sol\";\nimport \"openzeppelin-solidity/contracts/token/ERC20/IERC20.sol\";\nimport \"openzeppelin-solidity/contracts/access/Ownable.sol\";\nimport \"openzeppelin-solidity/contracts/math/SafeMath.sol\";\n\ncontract C3 is ERC20, Ownable {\n    string public constant version = \"C3 v1.0.0\";\n\n    ERC20 public backingToken;\n    using SafeMath for uint256;\n\n    bool public isEstablished = false;\n    modifier isLive() {\n        require(isEstablished == true, \"token must be established before use\");\n        _;\n    }\n    modifier isNotLive() {\n        require(isEstablished == false, \"token is already established\");\n        _;\n    }\n\n    bytes32 public agreementHash;\n\n    uint256 public totalAmountFunded = 0;\n\n    mapping(address => uint256) public shares;\n    mapping(address => uint256) public bacWithdrawn;\n\n    constructor() public ERC20(\"Continuous Contributor Credits\", \"C3\") {}\n\n    bool public sharesFinalized = false;\n\n    function establish(ERC20 backingTokenAddress, bytes32 agreement)\n        public\n        onlyOwner\n        isNotLive\n    {\n        agreementHash = agreement;\n        backingToken = backingTokenAddress;\n        isEstablished = true;\n    }\n\n    event Issued(address indexed account, uint256 c3Issued);\n\n    function issue(address account, uint256 amount) public onlyOwner isLive {\n        require(\n            sharesFinalized == false,\n            \"cannot issue more C3 after shares have been finalized\"\n        );\n        _mint(account, amount);\n        shares[account] = shares[account].add(amount);\n        emit Issued(account, amount);\n    }\n\n    event SharesFinalized();\n\n    function finalize() public onlyOwner {\n        sharesFinalized = true;\n        emit SharesFinalized();\n    }\n\n    function transfer(address recipient, uint256 amount)\n        public\n        override\n        isLive\n        returns (bool)\n    {\n        require(\n            amount == this.balanceOf(_msgSender()),\n            \"Only transfers of all tokens are allowed\"\n        );\n\n        shares[recipient] = shares[recipient].add(shares[_msgSender()]);\n        shares[_msgSender()] = 0;\n\n        bacWithdrawn[recipient] = bacWithdrawn[recipient].add(\n            bacWithdrawn[_msgSender()]\n        );\n        bacWithdrawn[_msgSender()] = 0;\n\n        _transfer(_msgSender(), recipient, amount);\n\n        return true;\n    }\n\n    function transferAll(address recipient) public isLive returns (bool) {\n        return transfer(recipient, this.balanceOf(_msgSender()));\n    }\n\n    event Burned(address indexed account, uint256 c3Burned);\n\n    function burn(uint256 amount) public isLive {\n        require(\n            withdrawableBac(_msgSender()) == 0,\n            \"burns are not allowed when a cashout is possible\"\n        );\n        uint256 associatedBacking = backingNeededFor(amount);\n        _burn(_msgSender(), amount);\n        shares[_msgSender()] = shares[_msgSender()].sub(amount);\n        backingToken.transfer(this.owner(), associatedBacking);\n        emit Burned(_msgSender(), amount);\n    }\n\n    event CashedOut(\n        address indexed account,\n        uint256 c3CashedOut,\n        uint256 bacReceived\n    );\n\n    function withdrawableBac(address account) public view returns (uint256) {\n        // proportion of funds earmarked for address is proportional to shares/totalSupply\n        uint256 totalBacForAccount =\n            totalAmountFunded.mul(shares[account]).div(totalSupply());\n        return totalBacForAccount.sub(bacWithdrawn[account]);\n    }\n\n    function cashableC3(address account) public view returns (uint256) {\n        // at 100% funded, all C3 can be withdrawn. At n% funded, n% of C3 can be withdrawn.\n        // Proportion funded can be calculated (handling the decimal conversion using the totalAmountNeededToFund)\n        // At some level C3 is purely aesthetic. BAC is distributed soley based on actual amount of money give to the\n        // contract and proportion of share that each contributor has.\n        uint256 fundedC3 =\n            shares[account].mul(totalAmountFunded).div(\n                totalBackingNeededToFund()\n            );\n        uint256 alreadyCashedC3 = shares[account].sub(this.balanceOf(account));\n        return fundedC3.sub(alreadyCashedC3);\n    }\n\n    function cashout() public isLive {\n        if (shares[_msgSender()] == 0 || totalAmountFunded == 0) {\n            return;\n        }\n\n        uint256 bacToReceive = withdrawableBac(_msgSender());\n        if (bacToReceive == 0) {\n            return;\n        }\n\n        uint256 c3ToCashout = cashableC3(_msgSender());\n\n        _transfer(_msgSender(), address(this), c3ToCashout);\n        bacWithdrawn[_msgSender()] = bacWithdrawn[_msgSender()].add(\n            bacToReceive\n        );\n        emit CashedOut(_msgSender(), c3ToCashout, bacToReceive);\n        backingToken.transfer(_msgSender(), bacToReceive);\n    }\n\n    function bacBalance() public view returns (uint256) {\n        return backingToken.balanceOf(address(this));\n    }\n\n    function backingNeededFor(uint256 amountC3) public view returns (uint256) {\n        if (bacBalance() == 0 || totalSupply() == 0) {\n            return 0;\n        }\n\n        // The -1 +1 is to get the ceiling division, rather than the floor so that you always err on the side of having more backing\n        return amountC3.mul(bacBalance()).sub(1).div(totalSupply()).add(1);\n    }\n\n    function totalBackingNeededToFund() public view returns (uint256) {\n        if (totalSupply() == 0) {\n            return 0;\n        }\n\n        // decimals normalization\n        if (decimals() > backingToken.decimals()) {\n            // ceiling division\n            return\n                (totalSupply().sub(1))\n                    .div(uint256(10)**(decimals() - backingToken.decimals()))\n                    .add(1);\n        } else {\n            return\n                totalSupply().mul(\n                    uint256(10)**(backingToken.decimals() - decimals())\n                );\n        }\n    }\n\n    function remainingBackingNeededToFund() public view returns (uint256) {\n        return totalBackingNeededToFund().sub(totalAmountFunded);\n    }\n\n    function isFunded() public view returns (bool) {\n        return totalAmountFunded >= totalBackingNeededToFund();\n    }\n\n    event Funded(address indexed account, uint256 bacFunded);\n    event CompletelyFunded();\n\n    function fund(uint256 amount) public isLive {\n        require(\n            isFunded() == false,\n            \"cannot fund a contract that is is already completely funded\"\n        );\n\n        uint256 remainingNeeded = remainingBackingNeededToFund();\n        if (remainingNeeded <= amount) {\n            totalAmountFunded = totalAmountFunded.add(remainingNeeded);\n            if (sharesFinalized == false) {\n                sharesFinalized = true;\n                emit SharesFinalized();\n            }\n            emit Funded(_msgSender(), remainingNeeded);\n            emit CompletelyFunded();\n            backingToken.transferFrom(\n                _msgSender(),\n                address(this),\n                remainingNeeded\n            );\n        } else {\n            totalAmountFunded = totalAmountFunded.add(amount);\n            emit Funded(_msgSender(), amount);\n            backingToken.transferFrom(_msgSender(), address(this), amount);\n        }\n    }\n}\n",
  "sourcePath": "/home/vividn/Synchronize/Sunshine/continuous-contributor-credits/contracts/C3.sol",
  "compiler": {
    "name": "solc",
    "version": "0.6.8+commit.0bbfe453.Emscripten.clang"
  },
  "schemaVersion": "3.4.1",
  "updatedAt": "2021-05-29T16:17:07.504Z",
  "networkType": "ethereum",
  "devdoc": {
    "methods": {
      "allowance(address,address)": {
        "details": "See {IERC20-allowance}."
      },
      "approve(address,uint256)": {
        "details": "See {IERC20-approve}.     * Requirements:     * - `spender` cannot be the zero address."
      },
      "balanceOf(address)": {
        "details": "See {IERC20-balanceOf}."
      },
      "decimals()": {
        "details": "Returns the number of decimals used to get its user representation. For example, if `decimals` equals `2`, a balance of `505` tokens should be displayed to a user as `5,05` (`505 / 10 ** 2`).     * Tokens usually opt for a value of 18, imitating the relationship between Ether and Wei. This is the value {ERC20} uses, unless {_setupDecimals} is called.     * NOTE: This information is only used for _display_ purposes: it in no way affects any of the arithmetic of the contract, including {IERC20-balanceOf} and {IERC20-transfer}."
      },
      "decreaseAllowance(address,uint256)": {
        "details": "Atomically decreases the allowance granted to `spender` by the caller.     * This is an alternative to {approve} that can be used as a mitigation for problems described in {IERC20-approve}.     * Emits an {Approval} event indicating the updated allowance.     * Requirements:     * - `spender` cannot be the zero address. - `spender` must have allowance for the caller of at least `subtractedValue`."
      },
      "increaseAllowance(address,uint256)": {
        "details": "Atomically increases the allowance granted to `spender` by the caller.     * This is an alternative to {approve} that can be used as a mitigation for problems described in {IERC20-approve}.     * Emits an {Approval} event indicating the updated allowance.     * Requirements:     * - `spender` cannot be the zero address."
      },
      "name()": {
        "details": "Returns the name of the token."
      },
      "owner()": {
        "details": "Returns the address of the current owner."
      },
      "renounceOwnership()": {
        "details": "Leaves the contract without owner. It will not be possible to call `onlyOwner` functions anymore. Can only be called by the current owner.     * NOTE: Renouncing ownership will leave the contract without an owner, thereby removing any functionality that is only available to the owner."
      },
      "symbol()": {
        "details": "Returns the symbol of the token, usually a shorter version of the name."
      },
      "totalSupply()": {
        "details": "See {IERC20-totalSupply}."
      },
      "transferFrom(address,address,uint256)": {
        "details": "See {IERC20-transferFrom}.     * Emits an {Approval} event indicating the updated allowance. This is not required by the EIP. See the note at the beginning of {ERC20}.     * Requirements:     * - `sender` and `recipient` cannot be the zero address. - `sender` must have a balance of at least `amount`. - the caller must have allowance for ``sender``'s tokens of at least `amount`."
      },
      "transferOwnership(address)": {
        "details": "Transfers ownership of the contract to a new account (`newOwner`). Can only be called by the current owner."
      }
    }
  },
  "userdoc": {
    "methods": {}
  }
}